:020000040800F2
:10000000FF7F0020B94E0008094F0008094F000883
:10001000094F0008094F0008094F000800000000C0
:10002000000000000000000000000000094F000870
:10003000094F000800000000094F000841050008B2
:10004000094F0008094F0008094F0008094F000830
:10005000094F0008094F0008094F0008094F000820
:10006000094F0008094F0008094F0008094F000810
:10007000094F0008094F0008094F0008094F000800
:10008000094F0008094F0008094F0008094F0008F0
:10009000FD0C0008094F0008094F0008094F00082F
:1000A000094F0008094F0008094F0008094F0008D0
:1000B000094F0008094F0008094F0008094F0008C0
:1000C000094F0008094F0008094F0008094F0008B0
:1000D000094F0008094F0008094F0008094F0008A0
:1000E000094F0008094F0008094F0008094F000890
:1000F000094F0008094F0008094F0008094F000880
:10010000000000000000000000000000094F00088F
:10011000094F0008094F0008094F0008094F00085F
:10012000094F0008094F0008094F0008094F00084F
:10013000094F0008094F00080000000000000000FF
:10014000094F0008094F0008094F0008000000008F
:10015000000000000000000000000000000000009F
:100160000000000000000000094F0008094F0008CF
:10017000094F00080000000000000000000000001F
:0801800000000000094F000817
:1001880010B5054C237833B9044B13B10448AFF3C9
:1001980000800123237010BD3C0A002000000000ED
:1001A800FC6B0008084B10B51BB108480849AFF3B1
:1001B80000800848036803B910BD074B002BFBD02B
:1001C800BDE81040184700BF00000000FC6B0008A5
:1001D800400A00203C0A00200000000010B4044639
:1001E800013CFDDC4FF0000010BC7047F0B5044640
:1001F8000D469CB14FF000064FF0080767B1304636
:1002080004F062FA2846FFF7E9FF304604F05CFA8A
:10021800013F06F10106F1E7013CEAE7BDE8F040DD
:10022800704700BF00B502B4FFB40B4804F04CFAA5
:10023800FFBC0A49086802BC00BD00BF00B503B492
:100248000649086800F10100086003BC00BD00BF52
:1002580000B500BD00B500BD000000000000002092
:10026800844641EA000313F003036DD1403A41D3B9
:1002780051F8043B40F8043B51F8043B40F8043B78
:1002880051F8043B40F8043B51F8043B40F8043B68
:1002980051F8043B40F8043B51F8043B40F8043B58
:1002A80051F8043B40F8043B51F8043B40F8043B48
:1002B80051F8043B40F8043B51F8043B40F8043B38
:1002C80051F8043B40F8043B51F8043B40F8043B28
:1002D80051F8043B40F8043B51F8043B40F8043B18
:1002E80051F8043B40F8043B51F8043B40F8043B08
:1002F800403ABDD2303211D351F8043B40F8043BA8
:1003080051F8043B40F8043B51F8043B40F8043BE7
:1003180051F8043B40F8043B103AEDD20C3205D3B7
:1003280051F8043B40F8043B043AF9D2043208D0AF
:10033800D2071CBF11F8013B00F8013B01D30B8821
:1003480003806046704700BF082A13D38B078DD0FF
:1003580010F003038AD0C3F10403D21ADB071CBFD1
:1003680011F8013B00F8013B80D331F8023B20F83B
:10037800023B7BE7043AD9D3013A11F8013B00F874
:10038800013BF9D20B7803704B7843708B788370FC
:100398006046704707B5F8B9684600F031FA08B109
:1003A8000F4804E001A800F02BFA18B10D4804F03A
:1003B80061FE11E00099CB1E072B03D90A4800F013
:1003C800B3FF09E0094A01990093D05C11B104F028
:1003D8005FF901E004F06AF903B05DF804FB00BFBF
:1003E800146C0008266C00084F6C0008E66D0008C5
:1003F80007B558B9684604F0DFFA0648BDF9001099
:10040800BDF90220BDF9043000F08EFF03B05DF89D
:1004180004FB00BF7C6C00081FB5F8B901A804F004
:10042800F5FA9FED106ADDED016A9DED027ADDEDCA
:10043800037A0D4866EE866A27EE067A67EE867AB4
:10044800FDEEE66ABDEEC77AFDEEE77A16EE901A83
:1004580017EE102A17EE903A00F066FF05B05DF827
:1004680004FB00BF00008043AF6C000808B558B912
:1004780004F072F9054B0649002818BF19460548CB
:10048800BDE8084000F050BF08BD00BFDE6C0008A2
:10049800E66C0008EF6C000808B5032004F0F8F8D3
:1004A800FEE7000010B590B00123069307930023E0
:1004B80008934FF4803302240E9306A84FF4E013F8
:1004C8000D940F9300F08AFF10BB0F230193039044
:1004D8004FF480630590214601A80294049301F02B
:1004E80067FA0446A0B901F02FFC00F0C1FA0F4BDF
:1004F800185D013404F098F8082CF8D10020014662
:1005080004F0F0F804F040FA20B1094804F0B2FD14
:10051800FFF7C2FF04F058FA08B10648F6E7FFF7FC
:1005280099FE00F0D7F8FFF793FEFAE7E66D0008AA
:10053800086D00082A6D000808B501F017FCBDE831
:100548000840FFF77BBE000013B5044601A800F081
:1005580057F908B102230193684600F051F910B128
:100568006FF07F430093012C0ED0022C03D1074873
:1005780004F080FD08E001990548009A00F0D4FED7
:1005880001980099FFF732FE02B010BDEE6D000829
:100598000E6E000807B540B9684600F031F901A8A9
:1005A80000F02EF9009B019A1A6003B05DF804FB75
:1005B80007B538B901A800F023F9019903480A687A
:1005C80000F0B2FE03B05DF804FB00BF356E000812
:1005D8002DE9F041154608B9334820E009B93348F8
:1005E8001DE022B1324B4C1E1E6803460AE031481A
:1005F80015E013F8012B002A4DD03244013C527803
:1006080012074BD5671C18462146F2D11B78002BE0
:1006180047D0294904F060FE064610B92748284902
:1006280037E0284904F0AAFD0446A0B9224904F09D
:1006380053FE064690B90C3555F80C1C89B355F88D
:10064800042C1AB1204800F06FFEF4E755F8083C76
:1006580001209847EFE74FF0000809E04FF0020843
:1006680006E03046394604F089FD044620B10C35D1
:100678002F68002FF5D10AE0B8F1000F03D0134816
:10068800394600F051FE6B684046984709E010482B
:10069800314600F049FE4FF0FF3402E00029B8D19E
:1006A800F9E72046BDE8F081806E0008A16E0008D9
:1006B800FC010020B16E0008D46E0008DB6E000853
:1006C800646F00080B6F0008106F00081C6F0008AB
:1006D800216F000873B53F4D2B6823B13E4800F0E9
:1006E80023FE00232B600DF1070000F032FA0028EA
:1006F8006ED19DF80730082B01D07F2B0DD1374CD8
:10070800226852B1364800F00FFE364A1368013BA2
:1007180013602368013B23605AE0212B15D1324B2B
:100728001B68002B54D0314C3149204604F048FD59
:100738002146304800F0F8FD204604F09FFD274B85
:100748001860284B04441C6025E02B4A12681A44A0
:10075800527812F0970212D020490A684F2A9FBF98
:10076800204C20680370451C97BF013207209DF874
:100778000700256098BF0A6004F040FC28E00D2BB4
:1007880026D1184B1A481B6818491A7004F018FD2E
:10079800154B01221A600A20124C04F02FFC0F4B53
:1007A80020681E680246311A11444F294FF0000193
:1007B80002D802F8011BF6E719600C4E0F4B2260B5
:1007C80030461A685021FFF703FF012326602B608B
:1007D80002B070BD08000020566F0008580A0020BB
:1007E8005D6F0008040000205C0A0020E80E00206D
:1007F800980E0020616F0008FC0100200C0000200A
:1008080010B508490446002004F066FD30B1002107
:100818000A4604F02FFE2060002010BD4FF0FF3084
:1008280010BD00BFD46E000810B50649044600206C
:1008380004F052FD10B12060002010BD4FF0FF30D1
:1008480010BD00BFD46E00082DE9F04F804689B076
:1008580092460D46002944D003AC00EB0109064638
:100868002746C8EB0A014E453144C8EB060325D09C
:1008780013F00F0B03D11C4800F056FD3C461B4BF0
:1008880016F8011B1B681A480B445B7813F0970F86
:1008980008BF2E2204F1010314BF217022700193B6
:1008A8001C4600F041FDBBF10F0F019BD9D100227E
:1008B8001A7039460F4800F037FDD2E7002315F0CB
:1008C8000F0523700DD01C46C5F110039C4204D2BD
:1008D800094800F029FD0134F6E70648394600F0DA
:1008E80023FD09B0BDE8F08F6A6F0008FC01002005
:1008F800706F0008766F00087C6F0008012838B513
:100908001DD002280E4C0F4D09D10F4804F0B2FB40
:1009180021682A680D48BDE8384000F005BD20462A
:10092800FFF76EFF10B92846FFF76AFF20682968AD
:100938000246FFF789FF23682A681344236038BDFD
:10094800600A002010000020806F0008187100085D
:1009580008B50A4B1A680AB9094A1A6018686B463A
:100968000144994206D904F0CDFA0C2303604FF0F4
:10097800FF3008BD014B196008BD00BF640A0020A4
:10098800841C00204FF0FF3070474FF40053536031
:100998000020704701207047002070471C4B70B53D
:1009A8001B68044698471B4B9C4206462DD11A4BA0
:1009B800B3F80811B3F80C2192B212FA81F101F0E0
:1009C8007F01A3F80811B3F80A118A1A92B2A3F8A2
:1009D8000A210022A3F80C21B3F80811B3F80A2160
:1009E80092B289B21C4682B18B187F2B88BFC1F1A5
:1009F800800295B2214486312A46064803F071FBED
:100A0800044803F07CFBA4F80C51304670BD00BFCD
:100A18005C110020380F0020680A00202DE9F043FF
:100A2800044685B0E8B972B60F482146D0F810617F
:100A3800D0F81451D0F81891D0F81C81D0F8207152
:100A4800142200F5887004F08BFA62B60748CDF8D6
:100A58000090CDF804800297214632462B4600F0DC
:100A680063FC05B0BDE8F083680A002066710008E1
:100A780010B5174C23680021586802220B4604F071
:100A880001FB23680021986802220B4604F0FAFA59
:100A98002368104CD86800210B46022204F0F2FAB1
:100AA80020460D49002202F039FF0C490C4B4A69D7
:100AB8001A6020460B4B4B6102F045FF20460A495D
:100AC80003F008FB2046BDE8104002F043BF00BF1A
:100AD80028060020380F0020280100205C00002094
:100AE8005C110020A509000868010020F0B572B665
:100AF8000A440E460F4F4FF4927545437C198034D3
:100B0800A3889BB2C1EB060E83B196420ED06388D0
:100B18009BB21D4401337D5D06F8015B03F07F0342
:100B28006380A388013B9BB2A380E3E762B670466B
:100B3800F0BD00BF680A0020114600201A46FFF7E2
:100B4800D5BF08B50122FFF7D1FFB0FA80F0400900
:100B580008BD014608B50020FFF7F3FF003018BFB5
:100B6800012008BDF8B5374E4FF492737F2A03FB76
:100B7800006306D9D3F810210132C3F810210120EF
:100B8800F8BDB3F80A4112FA84F47F2C82BFD3F877
:100B980014410134C3F814414FF4927303FB00630A
:100BA800B3F80A4112FA84F47F2CF5D872B6D3F858
:100BB80018411444C3F818410A4491421CD04FF418
:100BC800927303FB006303F584756C88A4B27F2CD1
:100BD80012D8B3F8064111F801EBA4B203F58077F7
:100BE8002344013404F07F04FC8083F886E06B889A
:100BF80001339BB26B80E0E74FF4927303FB006311
:100C0800B3F8082195B2B3F80A2192B253197F2B91
:100C180088BFC5F1800290B90B4F97F8FC31032BC0
:100C28000DD194B2711938468631224603F059FA2B
:100C3800384603F064FA10B9024BA3F80C4162B6C7
:100C48000020F8BD680A0020380F0020F8B51D46BE
:100C58001446D718BC4226460FD033780A2B04F125
:100C6800010404D1002006490122FFF77BFF314629
:100C780001220020FFF776FFECE72846F8BD00BF09
:100C8800D96E0008F0B51A4D4FF4927303FB005368
:100C9800B3F8844012FA84F47F2C06D9D3F81C21C7
:100CA8000132C3F81C210120F0BDD3F820411444BF
:100CB800C3F820410A44914217D04FF49274444338
:100CC8002F1911F801EBB7F880309BB21C4401339F
:100CD80003F07F03A7F88030B7F8843005F804E004
:100CE80001339BB2A7F88430E5E70020F0BD00BFD0
:100CF800680A0020014801F0ACBD00BF6011002067
:100D080010B50B460446B0B1B1B1888889796268DC
:100D1800102905D0202905D0082905D1805C10BDEF
:100D2800805A10BD805810BD1A680448236800F026
:100D3800FBFA002010BD10BD084610BD1072000857
:100D480038B50B460446A8B1A1B18D8889794068A9
:100D5800102905D0202905D0082906D12A5402E0F7
:100D68002A5200E02A50002038BD1A680248236839
:100D780000F0DAFA012038BD1072000830B585B0ED
:100D880098B1447905790A4B0122A240E940013A19
:100D98000A40016807480094012C98BF0346019354
:100DA80002950548134600F0BFFA05B030BD00BFF4
:100DB800447200084A7200085072000873B516465B
:100DC8001D460446D8B18379009383880D48194499
:100DD80001912168134600F0A7FAA46844B175B1DF
:100DE800236833B120463146FFF7C8FF0834F7E7D8
:100DF8002DB10A2002B0BDE8704004F0FFB802B07F
:100E080070BD00BF7972000870B50E460546A8B1DE
:100E18000B4895E8060000F087FAAC6804B970BD85
:100E280023685BB121462846FFF76AFF69680246D6
:100E380033462046FFF7C2FF0C34F1E770BD00BF10
:100E4800B472000838B50546092004F0D7F808241C
:100E5800296889B1094800F067FAEB6804444BB186
:100E6800074800F061FA0444462C03D9054800F00D
:100E78005BFA08240C35EBE738BD00BF616F00084A
:100E88004D720008DC72000838B50546092004F0E8
:100E9800B5F80824296899B10A4800F045FAEB68C2
:100EA8002044C4B253B1084800F03EFA2044C4B20A
:100EB800462C03D9054800F037FA08240C35E9E731
:100EC80038BD00BF616F00084D720008DC72000871
:100ED8002DE9F041022886B018D105A8FFF7A4FC37
:100EE80010B9059E654C0DE0654804F0C3F86348E9
:100EF800FFF7A8FF634836E03046294604F03EF97C
:100F080008B30C342568002DF6D114E002A8FFF7C9
:100F18008BFC10B9029E594C09E05B4804F0AAF812
:100F28001DE0304604F02AF90546F8B10C34216872
:100F38000029F6D10FE03146544800F0F5F94F4842
:100F4800FFF780FF97E05248294600F0EDF9A068C6
:100F5800FFF79AFF06E04F48314600F0E5F94748A9
:100F6800FFF770FF4C4804F085F884E003A8FFF70A
:100F78005BFC10B1204629460FE0A568039E29684E
:100F8800304621B104F0FAF850B10C35F7E743497F
:100F980004F0F4F808BB20460121FFF735FF6AE0AA
:100FA80004A8FFF741FC60B9AE68DDF81080376827
:100FB800002F43D04046394604F0E0F898B108368F
:100FC800F5E729462046FFF79BFE61680590024633
:100FD80001232846FFF7F2FE4DE0314622683048EB
:100FE80000F0A2F9B3E705A8FFF70AFC10B12D48F5
:100FF800296832E029462046FFF782FE727996F882
:1010080004E005990123934020FA0EF7013B03FA07
:101018000EF21F400B4003FA0EF320EA02022946A3
:101028001A432046FFF78CFE059B00970193216821
:101038002A6833681C4800F077F91CE003F062FF67
:10104800394607603A46049804F014FA059003F00C
:1010580059FF036823B11548049900F065F90AE0BF
:101068002946059A2046FFF76BFE114821682A6831
:10107800059B00F059F906B0BDE8F0813816010863
:10108800DF720008CE74000823750008FF75000899
:101098003A7600085F760008997600089B76000883
:1010A800527500088F750008BA750008D1750008D8
:1010B800EF75000807B5CBB28DF80730014628B1A7
:1010C8000268137003680133036004E00DF107023E
:1010D8000123FFF7BBFD03B05DF804FB2DE9F047E2
:1010E800141E80460D460FDD0A46501B12F8011BE0
:1010F8000029FAD1A042B4BF241A0C4613F0020FFB
:101108000CBF2027302700E02027DB070DD4264618
:10111800002E05DD40463946FFF7CCFF013EF7E7D4
:1011280024EAE47ACAEB040401E04FF0000AA94675
:10113800C5EB0A064E4419F8011B19B14046FFF7E2
:10114800B9FFF5E72546002D05DD40463946FFF78E
:10115800B1FF013DF7E7002CACBF3019301CBDE8EA
:10116800F0872DE9F04385B00746DDF830900D9EF5
:101178000D4651B930238DF804308DF805104A46D4
:1011880001A93346FFF7AAFF3BE033B10A2A04D18D
:10119800002902DA4D42012000E000200DF110087C
:1011A800002108F8011D75B1B5FBF2F102FB1155DC
:1011B800092DC2BF0E9BA3F13A042D19303508F84A
:1011C800015D0D46EFE7434698B1B9F1000F09D02C
:1011D800B20707D538462D21FFF76CFF09F1FF3913
:1011E800012407E02D2208F1FF3803F8012C002420
:1011F80000E00446384641464A463346FFF76EFF4C
:10120800204405B0BDE8F083F0B589B006460D4628
:10121800059200242B7823B1252B79D16B786A1C91
:101228002BB9002E7BD0336800221A7077E0252B6B
:101238006DD02D2B06BFAA1C0123002310460132B6
:101248000178302902D143F00203F7E70022017840
:10125800A1F130075FFA87FEBEF1090F054600F1DC
:10126800010003D80A2101FB0272F0E7732909D1B2
:1012780005992C4F081D09680590002908BF3946B3
:10128800304641E064290ED18DE80C0005996123B0
:101298000293081D096805900A2230460123FFF7CA
:1012A80060FF044439E0782906D10599081D8DE8C6
:1012B8000C000590612307E058290AD10599081DFB
:1012C8008DE80C00059041230293304609681022EE
:1012D8000BE075290BD18DE80C0005996123029369
:1012E800081D096805900A2230460023D7E76329BC
:1012F80013D10599081D09688DF81C100021059067
:101308008DF81D10304607A9FFF7E8FEC9E7154616
:1013180030462978FFF7CEFE013401357AE72046BA
:1013280009B0F0BD187101080FB407B504AA002070
:1013380052F8041B0192FFF767FF03B05DF804EB56
:1013480004B07047012808B50FD0022804D1074817
:10135800BDE8084003F08EBE4D20FEF763FFBDE8F0
:10136800084001460248FFF7DFBF08BD1F710108AA
:10137800587101081549D1F8883043F47003C1F851
:101388008830134B1A6842F001021A605868114AF3
:1013980002405A601A6822F0847222F480321A607D
:1013A8001A6822F480221A605A6822F4FE025A60EF
:1013B800DA6A22F00F02DA62186B074A02401A63EF
:1013C80000229A604FF000638B60704700ED00E0E8
:1013D800001002400CC07FF8CCFC00FFF8B5036891
:1013E800DB07044604D423689F0700F1C68057E151
:1013F800C14D6B6803F00C03042B07D06B6803F036
:101408000C03082B27D16B68DE0324D54FF4003278
:1014180092FAA2F3B3FA83F343F02003C3F342131F
:10142800012B01D1296804E092FAA2F2B2FA82F201
:10143800696A4FF4003393FAA3F3B3FA83F30122F2
:1014480003F01F0302FA03F30B42CCD06368934204
:10145800C9D00120F8BDA94E0023337000F08EFCDE
:1014680007464FF4003292FAA2F3B3FA83F343F03B
:101478002003C3F34213012B01D1296804E092FA37
:10148800A2F2B2FA82F2696A4FF4003393FAA3F334
:10149800B3FA83F3012203F01F0302FA03F30B42AA
:1014A80008D000F06BFC41F28833C01B9842D8D9B1
:1014B8000320F8BD23793370EB6A23F00F02A36889
:1014C8001343EB626368012B2BD100F057FC0646EF
:1014D8004FF4003292FAA2F3B3FA83F343F02003F5
:1014E800C3F34213012B01D1296804E092FAA2F256
:1014F800B2FA82F2696A4FF4003393FAA3F3B3FAAB
:1015080083F3012203F01F0302FA03F30B427FF473
:101518006AAF00F033FC41F28833801B9842D7D978
:10152800C6E700F02BFC06464FF4003292FAA2F30D
:10153800B3FA83F343F02003C3F34213012B01D121
:10154800296804E092FAA2F2B2FA82F2696A4FF4C8
:10155800003393FAA3F3B3FA83F3012203F01F03D2
:1015680002FA03F30B423FF43EAF00F007FC41F2EE
:101578008833801B9842D7D99AE75F4D6B6813F080
:101588000C0F07D06B6803F00C03082B25D16B6890
:10159800D80322D4022292FAA2F3B3FA83F343F0D7
:1015A8002003C3F34213012B01D1296804E092FA06
:1015B800A2F2B2FA82F2696A022393FAA3F3B3FAA7
:1015C80083F3012203F01F0302FA03F30B4230D026
:1015D800236993427FF43DAF2BE02269484BBAB3AD
:1015E80001221A6000F0CAFB0646022292FAA2F310
:1015F800B3FA83F343F02003C3F34213012B01D161
:10160800296804E092FAA2F2B2FA82F2696A022325
:1016180093FAA3F3B3FA83F3012203F01F0302FA48
:1016280003F30B4205D100F0A9FB801B6428DCD929
:101638003EE72A68F82393FAA3F3B3FA83F36169C0
:10164800DBB2994022F0F80241EA02032B6027E05E
:101658001A6000F093FB0646022292FAA2F3B3FA4C
:1016680083F343F02003C3F34213012B01D129680C
:1016780004E092FAA2F2B2FA82F2696A022393FAB9
:10168800A3F3B3FA83F3012203F01F0302FA03F36F
:101698000B4205D000F072FB801B6428DCD907E7F9
:1016A8002368190704D423685A0740F1A7804AE041
:1016B800A269114D134B3AB301221A6000F05EFB88
:1016C8000646022393FAA3F2B2FA82F293FAA3F23D
:1016D800B2FA82F2696A93FAA3F3B3FA83F30122A6
:1016E80003F01F0302FA03F30B42DCD100F046FBC0
:1016F800801B6428E5D9DBE6001002400210024096
:1017080000004242800442421A6000F037FB06465D
:10171800022393FAA3F2B2FA82F293FAA3F2B2FA8C
:1017280082F2696A93FAA3F3B3FA83F3012203F00E
:101738001F0302FA03F30B42B5D000F01FFB801B16
:101748006428E5D9B4E6974D974AEB6943F080538E
:10175800EB61136843F48073136000F00FFB0646D7
:10176800914B1B68DB054DD52B6A23F005032B62D3
:1017780000F004FB0646022393FAA3F2B2FA82F2BF
:1017880093FAA3F2B2FA82F242F04002C2F3421292
:101798009A420CBF296A696A93FAA3F3B3FA83F3EE
:1017A800012203F01F0302FA03F30B4230D12B6A24
:1017B800E26823F005031343012A2B6238D100F0B5
:1017C800DDFA0646022393FAA3F2B2FA82F293FAFA
:1017D800A3F2B2FA82F242F04002C2F342129A42F3
:1017E8000CBF296A696A93FAA3F3B3FA83F3012257
:1017F80003F01F0302FA03F30B4211D0E269002A37
:101808003DD18BE000F0BAFA801B6428A8D94FE6D6
:1018180000F0B4FA41F28833801B9842ABD947E60E
:1018280000F0ACFA41F28833801B9842CAD93FE6EF
:1018380000F0A4FA0646022393FAA3F2B2FA82F25F
:1018480093FAA3F2B2FA82F242F04002C2F34212D1
:101858009A420CBF296A696A93FAA3F3B3FA83F32D
:10186800012203F01F0302FA03F30B42C6D000F073
:1018780085FA41F28833801B9842DCD918E6494D35
:101888006B6803F00C03082B3FF4E3AD474E0023CD
:10189800022A33605CD100F071FA07464FF00072FB
:1018A80092FAA2F3B3FA83F343F02003C3F342138B
:1018B800012B35D12A684FF0007393FAA3F3B3FADA
:1018C80083F3012103F01F0301FA03F313422DD11F
:1018D800206A626A6B68024323F4741313436B60D3
:1018E800316000F04BFA04464FF0007292FAA2F30E
:1018F800B3FA83F343F02003C3F34213012B1BD144
:1019080029684FF0007393FAA3F3B3FA83F3012223
:1019180003F01F0302FA03F30B4213D00020F8BDB3
:1019280092FAA2F2B2FA82F26A6AC4E700F026FAE0
:10193800C01B6428B2D9BBE592FAA2F2B2FA82F2CD
:10194800696ADEE700F01AFA001B6428CCD9AFE513
:1019580000F014FA04464FF0007292FAA2F3B3FAB8
:1019680083F343F02003C3F34213012B01D1296809
:1019780004E092FAA2F2B2FA82F2696A4FF00073B6
:1019880093FAA3F3B3FA83F3012203F01F0302FAD5
:1019980003F30B42C2D000F0F1F9001B6428DAD936
:1019A80086E500BF0010024000700040600042421F
:1019B800B04AF8B5136803F00703994204460E4687
:1019C80040F2A980136823F007030B4313601368E0
:1019D80003F007038B4201D00120F8BD01688F078F
:1019E80041BFA548436823F0F002A36844BF1343EE
:1019F8004360CE070BD421684D0740F12B819E48E8
:101A0800436823F4E062E3681343436022E16268B9
:101A1800994D012A15D14FF4003191FAA1F3B3FA87
:101A280083F343F02003C3F34213012B01D1286849
:101A380004E091FAA1F1B1FA81F1686A4FF4003338
:101A48002AE0022A15D14FF0007191FAA1F3B3FAF6
:101A580083F343F02003C3F34213012B01D1286819
:101A680004E091FAA1F1B1FA81F1686A4FF00073CC
:101A780012E0022191FAA1F3B3FA83F343F02003B1
:101A8800C3F34213012B01D1286804E091FAA1F1B4
:101A9800B1FA81F1686A022393FAA3F3B3FA83F3E4
:101AA800012103F01F0301FA03F3034294D06B688A
:101AB80023F003031A436A6000F060F96368012B9E
:101AC80006460DD16B6803F00C03042B93D000F08D
:101AD80055F941F28833801B9842F3D90320F8BDA9
:101AE800022B13D16B6803F00C03082B83D000F092
:101AF80045F941F28833801B9842F3D9EEE700F0AC
:101B08003DF941F28833801B9842E7D86B6813F09F
:101B18000C0FF4D16FE70168880741BF5648436846
:101B280023F0F002A36844BF13434360CA070CD4F0
:101B3800504A136823F0070333431360136803F014
:101B48000703B3427FF448AF55E762684A4D012A5C
:101B580015D14FF4003191FAA1F3B3FA83F343F0AE
:101B68002003C3F34213012B01D1286804E091FA42
:101B7800A1F1B1FA81F1686A4FF400332AE0022A30
:101B880015D14FF0007191FAA1F3B3FA83F343F042
:101B98002003C3F34213012B01D1286804E091FA12
:101BA800A1F1B1FA81F1686A4FF0007312E00221E5
:101BB80091FAA1F3B3FA83F343F02003C3F342137A
:101BC800012B01D1286804E091FAA1F1B1FA81F161
:101BD800686A022393FAA3F3B3FA83F3012103F0AB
:101BE8001F0301FA03F303423FF4F6AE6B6823F0D8
:101BF80003031A436A6000F0C1F86368012B0746C3
:101C08000CD16B6803F00C03042B91D000F0B6F8EC
:101C180041F28833C01B9842F3D95FE7022B14D1F5
:101C28006B6803F00C03082B82D000F0A7F841F290
:101C38008833C01B9842F3D950E700F09FF841F26F
:101C48008833C01B98423FF649AF6B6813F00C0FFE
:101C5800F3D16DE70B0741BF074A2169536823F4A5
:101C6800605344BF43EAC10353600F2000F059F8A2
:101C78000020F8BD0020024000100240154910B5B0
:101C88004C6804F00C03082B21D14FF4701393FA1D
:101C9800A3F3B3FA83F304F47012DBB222FA03F36A
:101CA8000D4AC96AD25C0F2393FAA3F3B3FA83F3FC
:101CB80001F00F01DBB221FA03F30849C85CE30322
:101CC80052BF0748074BB3FBF0F0504310BD05481F
:101CD80010BD00BF001002409C7101088C71010802
:101CE80000093D0000127A0008B5FFF7C7FF094B4D
:101CF8005A68F02393FAA3F3B3FA83F302F0F002DD
:101D0800DBB222FA03F3044AD35CD840034B1860D1
:101D180008BD00BF001002407C71010814000020BB
:101D2800704710B50446FFF7DFFF4FF47A73B0FB36
:101D3800F3F000F085F84FF0FF302146002200F064
:101D480043F8002010BD0000074A08B5136843F0A7
:101D580010031360032000F025F80F20FFF7E1FFC0
:101D6800FFF7DEFF002008BD00200240024A13688A
:101D780001331360704700BF8C0B0020014B1868BB
:101D8800704700BF8C0B002013B50190FFF7F6FFDA
:101D98000446FFF7F3FF019B001B9842F9D302B0FA
:101DA80010BD0000074AD36823F4E0631B041B0C32
:101DB80043F0BF6343F4003300F0070043EA002315
:101DC800D360704700ED00E0154BDB68C3F30223D6
:101DD80070B5C3F107051C1D042D28BF0425062C6A
:101DE8008CBF033B0023012404FA03F6AC40013CFA
:101DF800013E214099403240002842EA01024FEA60
:101E08000212AFBF00F1604000F00F00054BD2B2E4
:101E1800A5BF00F56140D2B21A5480F8002370BD06
:101E280000ED00E014ED00E04109012300F01F007F
:101E3800024A834042F82130704700BF00E100E0C9
:101E48000138B0F1807F3FBF064B074A5860F02148
:101E58003FBF82F8231000200722986034BF1A6021
:101E68000120704710E000E000ED00E02DE9F041AE
:101E78000F68002301229A4002EA0705954240F0C4
:101E8800AC804C6824F0100CBCF1020F14D14FEA5E
:101E9800D30E00EB8E0E03F00706DEF82020B60006
:101EA8004FF00F0808FA06F822EA08080A69B24053
:101EB80048EA0202CEF820204FEA430E03220668C1
:101EC80002FA0EF2D24302EA060804F0030606FA02
:101ED8000EF60CF1FF3C48EA0606BCF1010F06605D
:101EE80011D8866802EA060CCE6806FA0EF64CEAA5
:101EF80006068660466826EA050CC4F300169E406E
:101F08004CEA06064660C66802EA060C8A6802FAC7
:101F18000EF64CEA0602C260E2005ED5324EB269A5
:101F280042F00102B26123F0030606F1804606F58D
:101F3800803603F0030CD6F808E04FEA8C0C0F2229
:101F480002FA0CF2B0F1904F2EEA020E15D0274A91
:101F5800904214D002F58062904212D002F580625D
:101F6800904210D002F5806290420ED002F5806255
:101F780090420CBF0522062208E0002206E001225A
:101F880004E0022202E0032200E0042202FA0CF23A
:101F980042EA0E02B260164A16686FEA050E14F499
:101FA800803F14BF2E430EEA06061660566814F4E6
:101FB800003F14BF2E430EEA06065660966814F4D6
:101FC800801F14BF2E430EEA06069660D668A40248
:101FD80054BF0EEA06053543D5600133102B7FF454
:101FE80049AFBDE8F08100BF00100240000400487E
:101FF800000401400369194214BF01200020704702
:102008000AB1018370474183704743695940416170
:10201800704738B50446002846D0022380F841317D
:1020280002F098F8656804F129020021A94202F13A
:102038001C024FF000030ED0012002F81D1C02F80C
:102048001C0C02F81A3C42F8113C42F80D3C42F8CC
:10205800093C0144EAE704F1B502AB4202F11C0273
:102068004FF000000DD002F81D3C02F81C0C02F8DD
:102078001A0C42F8110C42F80D0C42F8090C013305
:10208800EBE723680122A3F840204FF43D42A3F870
:102098004000A3F84400A3F85000A3F8402084F8B7
:1020A800240084F8410138BD012038BD08B501215C
:1020B80000F019FF002008BD90F84031012B0FD027
:1020C800012380F8403121B903688022A3F84C200D
:1020D80001E080F82410002380F84031184670474A
:1020E80002207047F0B5CCB214F0800F01F07F06E3
:1020F8004FF01C0515BF05FB060105FB0101283142
:10210800B431E4090E704C70CB7090F84031CA605D
:10211800012B00F08181012380F84031CC780A78C6
:102128000368032C2FD8DFE804F002220D1712B23F
:1021380033F82240A4B224F4EC4424F0700444F4AC
:1021480000741EE012B233F8224024F4EC4424F068
:1021580070042404240C14E012B233F82240A4B210
:1021680024F4EC4424F0700444F4C06409E012B28E
:1021780033F82240A4B224F4EC4424F0700444F46C
:10218800806423F822400A7816B242F4004533F8F6
:10219800264024F0F002120545F08005120D2A436E
:1021A80023F826208C7A0A78002C75D14D788C88F3
:1021B80008263DB3B3F85050ADB216FB025203EBFC
:1021C800420264086400C2F800440C7833F8242002
:1021D80052060BD533F8242022F0F0021205120D16
:1021E80042F4004242F0C00223F82420097833F870
:1021F800212022F4E04222F040021204120C82F064
:102208002002FEE0B3F85070BFB216FB027204322F
:1022180003F580656408640045F81240B3F850205F
:102228000C7892B216FB0422CE683E2E02F106020A
:102238000BD9C6F34F14F70604BF04F1FF34A4B258
:102248006FEAC4646FEA544406E0C6F34F04F60725
:1022580044BF0134A4B2A402A4B245F812400C78D9
:1022680033F8242052040BD533F8242022F0F0024E
:102278001205120D42F4404242F0800223F8242055
:10228800097833F8212022F4804222F070021204E7
:10229800120C82F44052B4E012B203F5806533F8B0
:1022A800224024F4F8742405240D44F4014444F035
:1022B800800423F82240B3F850600C780822B6B2A4
:1022C80012FB0466CC886408640045F81640B3F82D
:1022D80050400E78A4B212FB06420C8904326408FE
:1022E800640045F812400C784A7824B2002A46D196
:1022F80033F8242057040BD533F8242022F0F002B9
:102308001205120D42F4404242F0800223F82420C4
:102318000C7833F8242056060BD533F8242022F005
:10232800F0021205120D42F4004242F0C00223F8F6
:1023380024200C7833F8242022F0F0021205120D24
:1023480042F4004242F0C00223F824200C7833F80B
:10235800242022F4804222F070021204120C82F42B
:10236800405242F4004242F0800223F824200978C7
:1023780033F8212022F0C0021205120D41E033F893
:10238800242055040BD533F8242022F0F00212053E
:10239800120D42F4404242F0800223F824200C78C7
:1023A80033F8242052060BD533F8242022F0F0020B
:1023B8001205120D42F4004242F0C00223F8242014
:1023C8000C7833F8242022F0F0021205120D42F4A2
:1023D800404242F0800223F824200C7833F824206D
:1023E80022F0C0021205120D42F4004242F08002AF
:1023F80023F82420097833F8212022F0F0029204EF
:10240800920C42F4004242F0800223F8212000237B
:1024180080F840311846F0BD0220F0BDCBB213F071
:10242800800F30B54FF01C0201F07F0415BF02FB8E
:10243800040102FB01012831B431DB090C704B7037
:1024480090F84031012B00F0BF80012380F8403123
:102458000A788D7A4C78036812B21DBB84B133F8C0
:10246800224064065BD533F8224024F0F0042405AA
:10247800240D44F4004444F0C00423F822404EE004
:1024880033F82240650440F18D8033F8224024F06F
:10249800F0042405240D44F4404444F0800423F857
:1024A80022407FE0002C42D133F8224064040BD54F
:1024B80033F8224024F0F0042405240D44F4404469
:1024C80044F0800423F822400C7833F82420550681
:1024D8000BD533F8242022F0F0021205120D42F435
:1024E800004242F0C00223F824200C7833F824205C
:1024F80022F0F0021205120D42F4004242F0C0022E
:1025080023F824200C7833F8242022F0F0029204D7
:10251800920C42F4004242F0800223F82420097809
:1025280033F8212022F0C0021205120D41E033F8E1
:10253800224064040BD533F8224024F0F00424052B
:10254800240D44F4404444F0800423F822400C78DD
:1025580033F8242052060BD533F8242022F0F00259
:102568001205120D42F4004242F0C00223F8242062
:102578000C7833F8242022F0F0021205120D42F4F0
:10258800404242F0800223F824200C7833F82420BB
:1025980022F0C0021205120D42F4004242F08002FD
:1025A80023F82420097833F8212022F0F00292043D
:1025B800920C42F4004242F0800223F821200023CA
:1025C80080F84031184630BD022030BD70B501F0AA
:1025D8007F011C2404FB010404F1C0056A60002289
:1025E800AB60C4F8CC2084F8B52084F8B41090F817
:1025F8004031012B62D0012380F84031AB68D4F818
:10260800C040A34298BFAA604FF01C0202FB01021F
:1026180084BF1B1BAB6092F8BE5088BF2346B03204
:1026280004680DB1557915BBB4F850501279ADB2A4
:1026380005EBC2053E2B04F5806605F106050BD9AE
:10264800C3F34F12DB0604BF02F1FF3292B26FEA06
:10265800C2626FEA524206E0C3F34F02DB0744BF8F
:10266800013292B2920292B246F815200CE0012D86
:1026780001BFB4F850501279ADB205EBC20204BFE5
:1026880004EB4202C2F80C341C2303FB010191F84D
:10269800B42034F8223023F4804323F070031B0461
:1026A8001B0C83F4405343F4004343F0800324F8A5
:1026B8002230002380F84031184670BD022070BDDA
:1026C80001F07F011C2303FB0100B0F8CC00704728
:1026D800F8B501F07F061C2101FB0601044601F153
:1026E80038008A634360002201230A6481F8293094
:1026F80081F8286094F840519D4200F0A88084F841
:1027080040314B6B45681C2707FB06479D4288BF35
:10271800ED1A97F8321086BF45601D464260ABB28D
:1027280007F1280289B9B96B9288206800F0B3FBD9
:10273800216897F82830B1F8502092B202EBC30311
:1027480001EB4303C3F8045467E0527820681ABBCE
:10275800B0F8501097F8282089B201EBC2013E2D3D
:1027680000F5806701F106010BD9C5F34F12ED069C
:1027780004BF02F1FF3292B26FEAC2626FEA5242BC
:1027880006E0C5F34F02ED0744BF013292B2920250
:1027980092B247F811200DE0012A01BFB0F850208D
:1027A80097F8281092B202EBC10204BF00EB420274
:1027B800C2F80C541C2505FB064202F1280192F8C8
:1027C800287030F8277005FB06457F0654BFCA8875
:1027D800128EA96B00F05FFB95F82930226863B967
:1027E80095F8281032F8213023F0F0031B051B0D53
:1027F80043F4004343F0C0030DE0012B0DD195F8DD
:10280800281032F8213023F0F0031B051B0D43F488
:10281800404343F0800322F821301C2303FB064683
:10282800226896F8281032F8213023F4E04323F088
:1028380040031B041B0C83F0300343F4004343F0B4
:102848008003002022F8213084F84001F8BD0220DE
:10285800F8BD0368B3F844301BB2002BF7B5044643
:1028680011DB2368B3F84420520540F1E7814FF6A5
:10287800FF322046A3F8442001F0D6FC2046002170
:10288800FFF71AFCDAE10023ADF806302068B0F84B
:1028980044309BB21904ADF80430E2D5BDF80450B9
:1028A80015F00F0540F0B780BDF80410038801F05B
:1028B800100189B259BB23F4E14323F070031B04D0
:1028C8001B0C0380B0F8503094F828209BB203EB1F
:1028D800C20300EB4300A26BD0F80434C3F309032E
:1028E80023641344A363204601F092FC94F8243037
:1028F800002BCBD0E26B002AC8D194F82430216891
:1029080043F08003A1F84C3084F82420BEE79BB242
:10291800ADF80630BDF806301F051FD5B0F85030A9
:1029280094F8B4209BB203EBC20300EB4303B4F862
:10293800B820D3F80C34C3F30903C4F8CC3004F539
:10294800A27100F0BFFA2268138823F070031B05F8
:102958001B0D1380204601F04BFC97E7BDF80630AD
:102968001BB2002B92DA038823F070031B051B0DA2
:102978000380B0F8503094F8B4209BB203EBC20344
:1029880000EB4303D3F80C34C3F30903C4F8CC3089
:1029980063B1B4F8B820D4F8C41000F093FAD4F8AE
:1029A800C420D4F8CC301344C4F8C43020460021E5
:1029B80001F025FC2268D4F8C050B2F850103E2D22
:1029C80089B202F5806001F106010BD9C5F34F13F6
:1029D800EE0604BF03F1FF339BB26FEAC3636FEAED
:1029E800534306E0C5F34F03ED0744BF01339BB2E1
:1029F8009B029BB240F81130138823F4804323F0E4
:102A080070031B041B0C83F4405343F4004343F04E
:102A1800800313803AE72FB230F827309BB2ADF825
:102A28000630BDF806301BB2002B80F2848030F8E7
:102A3800273023F070031B051C2202FB05421B0DE7
:102A480020F8273002F1B80C9CF8063002F1B00EDD
:102A5800B3B9B0F850309EF804109BB203EBC10331
:102A680000EB4303D3F80C64C6F30906002E40D0EC
:102A7800D2F8C410BEF80820334600F023FA38E034
:102A88009EF8046033B230F82330B0F8501013F4D5
:102A9800804F89B24FF0080313FB061300EB430382
:102AA80009D0D3F80464C6F3090686B1D2F8C41075
:102AB800BEF80A2008E0D3F80C64C6F3090636B15C
:102AC800D2F8C410BCF80420334600F0FBF91C23EC
:102AD80003FB0543226893F8B41032F8213023F041
:102AE800F0031B051B0D43F4004343F0C00322F819
:102AF80021301C2101FB0541D1F8CC30D1F8C4208C
:102B08003344C1F8CC30D1F8C8303244C1F8C420BD
:102B18001BB1D1F8C000864208D21C2303FB054331
:102B2800204693F8B41001F06AFB04E0204691F8BF
:102B3800B410FFF74BFDBDF8063018067FF5A6AEBA
:102B4800206830F8273023F4E14323F070031B0496
:102B58001B0C1C2202FB054220F8273092F8323069
:102B680002F12806A3B9B0F8503092F828109BB2A9
:102B780003EBC10300EB4303D3F80434C3F30903A5
:102B88001364002B3AD0916BB28800F084F935E0D9
:102B980092F828703BB230F82330B0F8501013F098
:102BA800400F89B24FF0080313FB071300EB4303F0
:102BB80008D0D3F80434C3F30903136463B1916BE9
:102BC800F28807E0D3F80C34C3F3090313641BB18C
:102BD800916B128E00F05FF91C2303FB05432268FA
:102BE80093F8281032F8213023F0F0031B051B0D51
:102BF80043F4404343F0800322F8213021681C232A
:102C080003FB0545B1F8502095F8283092B202EB45
:102C1800C30301EB43032046D3F80424AB6B95F8B8
:102C28002810C2F309022A641A44EB6BAA6313B989
:102C380001F0EEFA2AE6FFF74BFD27E62368B3F822
:102C48004420520444BF4BF6FF72A3F84420B3F863
:102C58004420970444BF4DF6FF72A3F84420B3F80C
:102C68004420D60413D5B3F8402022F004021204FD
:102C7800120CA3F840204FF43D42A3F84020204610
:102C880001F0E0FA23684EF6FF72A3F844202368A7
:102C9800B3F84420150518D54FF2FF72A3F8442065
:102CA800B3F8402092B242F00802A3F84020B3F8EB
:102CB800402092B242F00402A3F84020B3F8443016
:102CC800D80402D4204601F0BCFA2368B3F84420A3
:102CD800910506D54FF6FF52A3F84420204601F08F
:102CE8009FFA2368B3F84420D20544BF4FF6FF6229
:102CF800A3F8442003B0F0BD90F84031012B10B583
:102D080049D0CCB201231C2280F8403114F0800F46
:102D180001F07F0315BF02FB030202FB0102283208
:102D2800B43201219170D9B2E3091170537002686D
:102D380079B913889BB223F4804323F0400383F4CA
:102D4800805383F0100343F4004343F0800313805F
:102D58001CE009B253B132F8213023F4E04323F0E8
:102D680040031B041B0C83F0100309E032F82130E8
:102D780023F4804323F070031B041B0C83F480535B
:102D880043F4004343F0800322F82130002380F805
:102D98004031184610BD022010BDCBB213F0800F91
:102DA80010B54FF01C0201F07F0415BF02FB0401AF
:102DB80002FB01012831B431DB0900228A700C7052
:102DC8004B7090F84031012B49D0012380F84031F5
:102DD8000C784B78026824B2DBB132F824305B06F9
:102DE8000BD532F8243023F0F0031B051B0D43F4F8
:102DF800004343F0C00322F82430097832F8213028
:102E080023F4E04323F040031B041B0C83F030033E
:102E18001AE032F824305B040BD532F8243023F062
:102E2800F0031B051B0D43F4404343F0800322F8D5
:102E38002430097832F8213023F4804323F07003DA
:102E48001B041B0C83F4405343F4004343F08003FA
:102E580022F82130002380F84031184610BD0220A6
:102E680010BD11F0800F30B54FF01C051BBF01F0ED
:102E78007F0405FB040005FB0100283008BFB430BF
:102E880012B98272838004E00122C3801B0C827213
:102E98000381002030BD013300F5806030B55B1040
:102EA80000EB420200249C4201F1020109D011F812
:102EB800015C11F8020C40EA052022F824000134D4
:102EC800F1E730BD013300F5806010B55B1000EB11
:102ED800420200249C4205D052F8240021F8140034
:102EE8000134F7E710BD704730B50468039D60688A
:102EF80020F07F7020F4593020F47F7020F0030018
:102F080028430343C1F309010B4343EA02426260C9
:102F180030BD000070B504460D46FEF72FFF23684C
:102F28000646986910F0100039D094F83520122A16
:102F380007D094F83520522A03D094F83520622A15
:102F480012D15A6890010FD45A6842F480425A60EC
:102F58000AE09A69920611D4691CFAD035B1FEF7D5
:102F68000DFF801BA84201D82368F2E7012384F8EB
:102F78003530002384F83430032070BD1022DA6124
:102F88002022DA615968064A0A405A60042384F804
:102F980036300120002384F8350084F8343070BDC1
:102FA80000E800FE2DE9F04104460E4690461D4615
:102FB800FEF7E4FE0746B8F1000F25D122689369B1
:102FC8003340B3420ED0691CF9D07DB1FEF7D6FE6E
:102FD800C01BA842F2D909E06B1C06D193693340A3
:102FE800B342F9D00020BDE8F08145B9012384F847
:102FF8003530002384F834300320BDE8F081FEF733
:10300800BDFEC01BA842F1D82268E7E770B50446A8
:103018000D46FEF7B3FE064623689B699B071BD443
:1030280020462946FFF776FFC0B96A1CF4D06DB96F
:1030380094F8363043F0200384F83630012384F8BE
:103048003530002384F83430032070BDFEF796FE37
:10305800801BA842E0D9EBE7002070BD012070BDBD
:1030680073B51E464FF400530446009315464FF0BF
:103078008073F2B2FFF738FF20460699FFF7C6FFC4
:1030880030B194F83630042B0CBF0120032017E030
:10309800012E236808D02A0A9A6220460699FFF76B
:1030A800B5FF0028EDD12368EDB29D62204680214E
:1030B8000022069BFFF776FF002814BF032000209C
:1030C80002B070BD73B51E464FF40053044600931A
:1030D80015460023F2B2FFF707FF20460699FFF7CF
:1030E80095FF30B194F83630042B0CBF0120032033
:1030F80017E0012E236808D02A0A9A62204606990A
:10310800FFF784FF0028EDD12368EDB29D622046C9
:1031180040210022069BFFF745FF002814BF03202B
:10312800002002B070BD70B504460D46FEF726FEBD
:10313800064623689B699B0619D420462946FFF753
:10314800E9FEB0B96DB994F8363043F0200384F83D
:103158003630012384F83530002384F834300320D6
:1031680070BDFEF70BFE801BA842E2D9EBE70020FA
:1031780070BD012070BD704710B50446002841D0CD
:1031880090F835300BB9FFF7F6FF022384F8353095
:103198002368E1681A6822F001021A60626822F066
:1031A80070621A619A6822F400429A60A26842B179
:1031B800012903D142F400429A6007E042F4044234
:1031C8009A60022904BF4FF400625A605A68616924
:1031D80042F0007242F400425A6022690A43A1692F
:1031E80042EA0122DA60216AE2690A431A601A682F
:1031F80042F001021A600020012384F8360084F8A6
:10320800353010BD012010BD704710B5044688B197
:103218000268022380F83530136823F00103136035
:10322800FFF7F2FF002084F8360084F8340084F8B1
:10323800350010BD012010BD2DE9F34790F8355039
:10324800DDF82890BDF82C60DDF830A0EDB2012D36
:103258000446884664D1B9F1000F01D1012062E02B
:10326800002EFBD00768BF6917F4004758D190F8C3
:1032780034E0BEF1010F53D04FF0520E80F835E024
:1032880080F8345080F83670CDF800A0FFF7E8FEDB
:1032980020B194F8363084F8347031E00090FF2E75
:1032A800204641461CD8F2B24FF00073FFF71CFECF
:1032B800354620465146FFF7A9FEF8B9236819F8A4
:1032C800012B9A62013E013DB6B210D18EB1204663
:1032D80080212A465346FFF765FE18BB0095DEE7B6
:1032E800FF224FF08073FFF7FFFDFF25E1E7002E77
:1032F800DFD120461921FFF716FF20B194F83630A8
:10330800042B0FD1AAE723682022DA615968074AFB
:103318000A405A60012384F8353084F8340002E00A
:10332800022000E0032002B0BDE8F08700E800FEBC
:103338002DE9F34790F83550DDF82890BDF82C605A
:10334800DDF830A0EDB2012D044688466CD1B9F104
:10335800000F01D1012068E0002EFBD00768BF698B
:1033680017F4004760D190F834E0BEF1010F5BD04C
:103378004FF0620E80F835E080F8345080F83670EF
:10338800CDF800A0FFF79EFE20B194F8363084F8FF
:10339800347038E04FF41053FF2E00932046414616
:1033A80021D8F2B24FF00073FFF79EFD3546204654
:1033B800042100225346FFF7F5FD30BB2368013E88
:1033C8005B6A09F8013B013DB6B213D1A6B12046AC
:1033D80080212A465346FFF7E5FDB0B900952046FF
:1033E8004146FF2EDCE7FF224FF08073FFF77CFD9C
:1033F800FF25DCE7002EDAD120461921FFF793FEDE
:1034080028B194F83630042BA4D003200DE02368AB
:103418002022DA615968064A0A405A60012384F872
:10342800353084F8340000E0022002B0BDE8F087AF
:1034380000E800FE90F8350070472DE9F041044699
:103448000F4616461D46FEF799FC804623689A6883
:103458003A40B24234D06A1CF9D04DB923685A6850
:1034680022F0E0025A606268B2F5827F12D106E06B
:10347800FEF784FCC8EB0000A842E7D9EEE7A26893
:10348800B2F5004F02D0B2F5806F03D11A6822F06E
:1034980040021A60A26AB2F5005F01BF1A6822F4FE
:1034A80000521A601A6804BF42F400521A600123DD
:1034B80084F85D30002384F85C300320BDE8F08197
:1034C8000020BDE8F0812DE9F34104460F46164679
:1034D8001D46FEF753FC804621688A683A40B2428E
:1034E8003BD0B7F5C06F04D11EB90B7BDBB28DF8AA
:1034F80007306B1CF1D04DB923685A6822F0E002FE
:103508005A606268B2F5827F12D106E0FEF736FC97
:10351800C8EB0000A842DFD9EEE7A268B2F5004F79
:1035280002D0B2F5806F03D11A6822F040021A6007
:10353800A26AB2F5005F01BF1A6822F400521A604D
:103548001A6804BF42F400521A60012384F85D30FF
:10355800002384F85C30032000E0002002B0BDE8BE
:10356800F08138B50D4600224FF4C0512B46044671
:10357800FFF7A9FF024668B9204680212B46FFF7CE
:103588005CFF024630B920464FF4C0612B46FFF776
:103598009AFF30B194F85E3043F0200384F85E302F
:1035A800032038BD704770B5044600284CD002236C
:1035B80080F85D30FFF7F6FF2168E2680B68B2F526
:1035C800E06F23F040030B604FF0000303D9184667
:1035D800B2F5706F01E04FF4805018BFA362236BFF
:1035E8002BB9B2F5E06F8CBF022301232363656812
:1035F800A668A3692E4325692E4365692E43E569AC
:103608002E43256A2E43A56A2E4303F400753543DD
:103618000D60256B022D02BF0D6845F400650D6035
:10362800656A2A43656B1B0C154303F0040245EADF
:10363800020303434B60E36A0B610020012384F813
:103648005E0084F85D3070BD012070BD704710B514
:10365800044688B10268022380F85D30136823F0BD
:1036680040031360FFF7F2FF002084F85E0084F83F
:103678005D0084F85C0010BD012010BD2DE9F74FF6
:1036880090F85D500C9E4FF0000B012D04468946C2
:1036980092469846ADF806B001D0022038E10029DC
:1036A80000F03381002A00F03081002B00F02D81DA
:1036B800FEF764FB94F85C30012B0746EDD0052338
:1036C80084F85D30A36A226884F85C50B3F5005F23
:1036D80008BF136884F85EB008BF23F40053C4F829
:1036E80040A0A4F84680A4F84480C4F83890A4F810
:1036F8003E80A4F83C8004BF13601368E16804BFEF
:1037080043F400531360B1F5E06F536802D8B8F181
:10371800010F02D923F4805301E043F4805353602E
:10372800136858065EBF136843F040031360B1F591
:10373800E06F4BD9E38FB4F84600002B34D02268F1
:103748009168890711D5A16B0988D160A16B013BEC
:1037580002319BB2A163E3873BB9A36AB3F5005F6B
:1037680002BF136843F48053136068B123689A68F2
:10377800D20709D5DA68236C23F8022B2364B4F83E
:103788004630013BA4F84630751CD3D036B9012326
:1037980084F85D30002384F85C30B8E0FEF7EEFA78
:1037A800C01BB042C6D9F2E70028DED1A36AB3F540
:1037B800005F40F08A805DE022689168880709D43C
:1037C800B4F84630002B26D1731C46D1E38F002B6A
:1037D800F2D14AE0A16B022B9FBF4B1CA3630B786D
:1037E800137391BFE38F0988D160023B94BF03F143
:1037F800FF33A26BE387E38F84BF0232A263002BFF
:10380800DED1A36AB3F5005F01BF2268136843F4F1
:1038180080531360D4E722689168C907D4D5012B77
:10382800236C10D9D16823F8021B2364B4F84630FE
:10383800023B9BB2012BA4F84630C5D8536843F429
:1038480080535360C0E7591C2164127B1A70B4F886
:103858004630013BA4F84630B6E7002E97D0FEF775
:103868008DFAC01BB042B1D991E7B4F84630002BAD
:10387800A6D19BE7022120460A463346FFF7DDFD25
:1038880028B194F85E3043F0020384F85E30E368B0
:10389800B3F5706F236802D1DB689BB213E0216B2C
:1038A8001B7BADF8063002290FD120460A46334665
:1038B800FFF7C3FD28B194F85E3043F0020384F8A3
:1038C8005E3023681B7BADF8063020463146FFF793
:1038D80048FEE0B92568AA68012312F0100184F8AF
:1038E8005D3094F85E200AD042F0020284F85E202F
:1038F8006FF01002AA6084F85C00184608E0101CFB
:1039080084F85C1018BF012002E0284600E003207C
:1039180003B0BDE8F08F90F85D00704708B580B13E
:10392800D0F8143213B10023C0F8143209B1C0F82A
:103938001012012380F8FC31027000F085FC002091
:1039480008BD022008BD19B1C0F814120020704744
:103958000220704708B500F0B5FC002008BD08B586
:10396800D0F814320BB9022008BD1B68984700280C
:10397800F9D108BD08B5D0F814325B689847002023
:1039880008BD38B5044600F50275284600F0C8F8A9
:10399800012394F80812C4F8F431B4F80E32C4F8CC
:1039A800F83101F01F03012B0CD006D3022B0ED1E6
:1039B8002046294600F0F8F90EE02046294600F096
:1039C800CFF809E02046294600F0D6F904E0204661
:1039D80001F0800100F08EFC002038BD10B50446CF
:1039E80009BBD0F8F431032B26D1D0F80C11D0F84C
:1039F800103199420AD9C91A8B4228BF0B46C0F820
:103A08000C1111469AB200F06CFA15E0D0F8143295
:103A18001B6923B190F8FC21032A00D1984720465E
:103A280000F068FA08E0D0F814329B6923B190F8E6
:103A3800FC21032A00D19847002010BD38B5044660
:103A4800A9BBD0F8F431022B29D1C569036A9D427C
:103A580006D9EB1A1146C3619AB200F029FA1EE0A2
:103A68008269B2FBF3F503FB15255DB99A4209D3C8
:103A7800D0F8F8319A4205D22A4600F019FAC4F86B
:103A8800F8510CE0D4F81432DB682BB194F8FC211F
:103A9800032A01D120469847204600F036FA94F8C8
:103AA8000032012B0CD1002384F8003208E0D0F852
:103AB80014325B6923B190F8FC21032A00D198479E
:103AC800002038BD38B5002104460A464025402369
:103AD80000F0FFFB2B46C4F810512046802100223D
:103AE80000F0F7FB012384F8FC31D4F81832256282
:103AF8002BB1D4F8143221795B682046984700200E
:103B080038BD01740020704708B590F8FC21032ADD
:103B180004D1D0F81432DB6903B19847002008BDFE
:103B28000B7803704B784370CA788B7803EB0223C9
:103B380043804A790B7903EB02238380CA798B7916
:103B480003EB0223C380704710B58021044600F0C0
:103B5800D1FB20460021BDE8104000F0CBBB00009F
:103B680073B54B7804460D46092B00F2FC80DFE85C
:103B780013F0CE00E500FA00E100FA0077000A0031
:103B8800FA00BD0093004B881A0A013A062A00F28F
:103B9800EA80DFE812F007000B001800E800E800F0
:103BA8003D004900D0F810321B682CE0027CD0F8A8
:103BB80014320AB99B6A00E0DB6A0DF106009847E7
:103BC800022301463CE0DBB2052B00F2CC80DFE8A3
:103BD80003F003070B0F1317D0F810325B6812E0DD
:103BE800D0F810329B680EE0D0F81032DB680AE09B
:103BF800D0F810321B6906E0D0F810325B6902E099
:103C0800D0F810329B69207C0DF10601984709E035
:103C1800037C002B40F0A780D0F814320DF1060089
:103C28005B6B984701460CE0037C002B40F09B80BF
:103C3800D0F814320DF106001B6B98470723014694
:103C48004B70BDF80630002B00F09180EA88002AFE
:103C580000F08D809A4228BF1A46ADF8062054E03D
:103C68008B88002B7FD1CB88002B7CD190F8FC313E
:103C78008E78032B06F07F0675D080F8FE613146FA
:103C880000F059FB204600F035F90EB1022300E0A0
:103C9800012384F8FC316AE08978364E01293170B5
:103CA80061D890F8FC31022B02D0032B08D05AE0DF
:103CB800002954D001210323416080F8FC310FE032
:103CC80031B9022380F8FC314160FFF753FE46E02A
:103CD8004168012943D0C9B2FFF74CFE31786160D1
:103CE8002046FFF73CFE022839D13CE0CA88012A69
:103CF80039D190F8FC31022B03D0032B33D1011DAD
:103D080015E00146002341F8083F20460FE090F8EF
:103D1800FC31023B012B26D80123C360D0F80432C2
:103D28000BB10323C360204604F10C01022200F00A
:103D3800B1F81CE04B88012B19D108E090F8FC3150
:103D4800023B012B0FD84B88012B10D10023C4F85C
:103D58000432D4F8143220469B68294698472046F6
:103D680000F0C8F803E020462946FFF7EDFE0020E2
:103D780002B070BD900B002038B590F8FC31032BD1
:103D880004460D460CD10B79012B09D8D0F8143212
:103D98009B689847EB882BB9204600F0ABF801E008
:103DA800FFF7D2FE002038BD70B54E788A88012E04
:103DB80004460D46D3B210D026D3032E4BD190F82B
:103DC800FC21022A27D0032A43D14A8892B95E06E9
:103DD80010D0194600F08EFA0CE090F8FC21022A67
:103DE80019D0032A35D14A88AABB590608D01946E2
:103DF80000F087FAD4F8143220469B682946984781
:103E0800204600F077F826E090F8FC51022D02D009
:103E1800032D06D01DE05A061DD0194600F06AFA97
:103E280019E003F07F0512F0800F00EB0515194625
:103E380014BF143505F5827500F06AFA10B1012334
:103E48002B6000E0286020462946022200F022F874
:103E580001E0FFF779FE002070BD30B5C8B1044617
:103E6800231A14F8015BDBB2002DF9D15B00023391
:103E780013800B7003234B700138022310F8014F95
:103E88003CB15A1CD2B2CC5402330024DBB28C545D
:103E9800F4E730BD38B513460D460222C0F8F421C8
:103EA8008361C36100212A4600F04CFA002038BD26
:103EB80010B50C4613460021224600F043FA0020B4
:103EC80010BD38B513460D460322C0F8F421C0F8DA
:103ED8000831C0F80C3100212A4600F03AFA0020D7
:103EE80038BD10B50C4613460021224600F031FAC1
:103EF800002010BD08B500210423C0F8F4310A469B
:103F08000B4600F01FFA002008BD08B50021052364
:103F1800C0F8F4310A460B4600F01BFA002008BD31
:103F2800D0F818321BB10020C3F8140270470220E1
:103F38007047D0F81C3210B5D0F818425BB194F82D
:103F48000002FF2807D09B6894F801222146984771
:103F5800FF2384F80032002010BD000043230380B3
:103F6800004870471800002043230380004870472A
:103F7800E40000204323038000487047A00000208D
:103F88000A230380004870479400002038B505468E
:103F9800D0F8184200F0E4F9D5F81832C4F80C0249
:103FA8004BB1D5F81C32D4F80402DB6804F5037170
:103FB8009847002038BD022038BDF8B50C4609786E
:103FC800D0F8185201F06003202B064620D1E28871
:103FD8006378BAB109060BD5D0F81C1218468F6859
:103FE8002946B84730462946E288FFF753FF0FE0D5
:103FF80085F80032E38885F801322946E288FFF720
:1040080060FF05E0D0F81C1218468C681146A047DE
:104018000020F8BD10B58121044600F064F90121A3
:10402800204600F060F92046822100F05CF9D4F8BF
:10403800183253B1D4F81C325B689847D4F8180288
:1040480000F098F90023C4F81832002010BDF8B524
:10405800037C0446812102224BB94FF4007300F01F
:1040680038F92046012102224FF4007306E040236C
:1040780000F02FF9204601210222402300F029F9FF
:10408800822103220823204600F023F94FF4077009
:1040980000F06CF90646C4F81802C8B1D4F81C320E
:1040A8001B689847277CD6F804220025C6F81452C6
:1040B8002046C6F8185201212FB94FF4007300F0BA
:1040C80048F93846F8BD402300F043F92846F8BDC2
:1040D8000120F8BD19B1C0F81C1200207047022059
:1040E8007047D0F818320020C3F80812C3F810221D
:1040F8007047D0F818320020C3F80412704738B55A
:10410800D0F8185275B1D5F814426CB9B5F8103218
:10411800D5F80822812100F015F90123C5F81432D9
:10412800204638BD022038BD012038BDD0F81832ED
:1041380010B563B1047CD3F80422012114B94FF4FB
:10414800007300E0402300F004F9002010BD0220B5
:1041580010BD00002DE9F041244C636943F400339D
:104168006361636986B043F4802363614FF4C0568A
:10417800112300254FF003080E2701A94FF09040A6
:10418800029301960395CDF810800597FDF76EFE12
:1041980031462A464FF09040FDF732FF0120FDF7E7
:1041A800F3FD314601224FF09040FDF729FF02232D
:1041B80001A94FF09040029301960395CDF8108025
:1041C8000597FDF753FEE36943F40003E361A36930
:1041D80043F00103A36105212A461420FDF7F4FDED
:1041E8001420FDF721FE06B0BDE8F0810010024062
:1041F800014601F5A271D0F87401FFF7C2BB1C2378
:1042080003FB0103D0F87401D3F8C420FFF7E6BB21
:104218001C2303FB0103D0F874019A6BFFF70EBC53
:10422800D0F87401FFF770BC10B504460121D0F82E
:104238007401FFF766FCD4F87401BDE81040FFF77D
:1042480041BC70477047000038B51C4A05461C48F9
:10425800C5F820020823002480E80C000223C4606B
:1042680003618360C0F87451FDF7D3FE21462246EE
:10427800D5F820024023FEF7F4FD802122460B46A4
:10428800D5F82002FEF7EDFD2246D5F8200281215F
:10429800C023FEF7E6FD2246D5F8200201214FF49F
:1042A8008873FEF7DEFDD5F82002822122464FF4FE
:1042B8008073FEF7D6FD204638BD00BF005C004085
:1042C8006011002008B5D0F82002FDF7EFFE0020AD
:1042D80008BD10B51446D0F820021A462346FDF74B
:1042E80001FF002010BD08B5D0F82002FEF796F8AF
:1042F800002008BD08B5D0F82002FEF7FDFC00201C
:1043080008BD08B5D0F82002FEF747FD002008BD1B
:1043180011F0800FD0F8202218BF01F07F034FF072
:104328001C0015BF00FB032100FB012191F82A00A6
:1043380091F8B600704708B5D0F82002FDF7BCFE2A
:10434800002008BD08B5D0F82002FEF7C1F900200A
:1043580008BD08B5D0F82002FEF738F9002008BDDE
:1043680008B5D0F82002FEF7ABF908BD0048704741
:10437800940B00207047000012230B800048704700
:10438800FD71010804230B8000487047AC710108D7
:1043980030B50024E3B293420DD2030F092B94BF2A
:1043A8003033373301F8143001EB440300250001A2
:1043B8005D700134EEE730BD1A2310B5094A0B8051
:1043C800094B50681B681468181808D00749082258
:1043D800FFF7DEFF204606490422FFF7D9FF05480C
:1043E80010BD00BFB0F7FF1FACF7FF1F460100204C
:1043F800560100204401002010B5044C04480A4628
:104408002146FFF72AFD204610BD00BFD812002024
:10441800B071010810B5044C04480A462146FFF75C
:104428001CFD204610BD00BFD8120020D171010824
:1044380010B5044C04480A462146FFF70EFD2046F5
:1044480010BD00BFD8120020E471010810B5044C5B
:1044580004480A462146FFF700FD204610BD00BF6C
:10446800D8120020EF7101080020704708B50B46EC
:104478000246114600201A68FCF704FC0248FFF7C0
:1044880055FE002008BD00BF380F002008B50349BD
:104498000348FFF72EFE002008BD00BF4814002087
:1044A800380F0020202812D0212822D1124B1A6858
:1044B8000A701A68120A4A705A888A70DA78CA70BA
:1044C8001A790A715A794A719B798B7111E08B7844
:1044D8004A7809481B0443EA02230A781343CA7836
:1044E80043EA026303600B7903714B7943718B795B
:1044F80083710020704700BF6001002010B51C4C7C
:1045080086B02046FFF707FA00282ED1194B236002
:104518001823E3610723E3624FF4E063E3604FF499
:104528000073A3614FF482736360134BA0606061F2
:104538002061A062206260629A6942F480529A61A6
:104548005A6942F400325A61E0230193022302932C
:104558000323039004934FF09040052301A905938A
:10456800FDF784FC2046FFF71EF806B010BD00BF1B
:10457800C40D002000300140001002407FB5002328
:104588008DF817300B4B8DF80F001B6800930A4805
:104598000DF10F010DF117020123FFF76FF820B19C
:1045A8000548FFF754F8FFF7A9FF9DF8170007B073
:1045B8005DF804FB78010020C40D002030B5164CCE
:1045C80087B02046FEF736FF18BB144B2360322312
:1045D800A360134D206101236061E0612062E36004
:1045E8006B69104843F480236B61C0230193022355
:1045F800029303930323049304230DEB0301059310
:10460800FDF734FCEB6943F40013EB612046FEF739
:10461800B3FD07B030BD00BF240E00200054004099
:10462800001002400004004870B5044686B068B126
:1046380001280BD0022809D0032807D0042805D068
:10464800052803D0062801D0072804D10D4A53694C
:1046580043F4001353610C4B0C4E33F8145056F8C6
:104668002400019501230293039301A903230493D2
:10467800FDF7FCFB56F8240029460022FDF7C0FC94
:1046880006B070BD001002401072010884010020BD
:10469800044A034652F82000034A32F81310012254
:1046A800FDF7AEBC8401002010720108044A0346DD
:1046B80052F82000034A32F813100022FDF7A0BC7C
:1046C8008401002010720108044A034652F82000B1
:1046D800034A32F81310FDF798BC00BF840100208C
:1046E8001072010810B5194B86B018B95A6942F40E
:1046F80000325A619A6942F001029A6169B901234C
:1047080001930223039303230493114B029153F85B
:10471800200001A9FDF7AAFB16E0012914D1032303
:1047280004930C4B02930A4B019153F82000002488
:1047380001A90394FDF79AFB06200F212246FDF7F5
:1047480043FB0620FDF770FB06B010BD00100240C9
:104758007C0100200000111008B5034B012153F81B
:104768002000FDF747FC08BD7C0100202DE9F0433F
:10477800164C174D636987B043F400136361002634
:104788004FF008094FF001080327284601A9CDF882
:104798000490CDF8088003960497FDF767FB42461E
:1047A80028464946FDF72CFC636943F4001363610E
:1047B8002846062301A90193029604970396FDF75C
:1047C80055FBFFF79BFE07B0BDE8F08300100240E1
:1047D80000100048012A70B50D46064688BF41F012
:1047E80040050C48144608210022FDF709FC28461C
:1047F800FFF7C4FE34B116F8010B013CFFF7BEFE0B
:10480800A4B2F7E7034808210122BDE87040FDF78C
:10481800F7BB00BF00100048012A70B58CBF41F0FB
:10482800C00541F08005064614460C4808210022C0
:10483800FDF7E6FB2846FFF7A1FE3CB10020FFF795
:104848009DFE013C06F8010BA4B2F6E703480821D7
:104858000122BDE87040FDF7D3BB00BF001000483F
:10486800164B5A6970B542F400125A615A69144DD0
:1048780042F4001286B05A61042300240DEB0301B0
:10488800032628460193029403940496FDF7EEFA52
:10489800224621460820FDF797FA0820FDF7C4FABA
:1048A8003023284601A90193029404960394FDF746
:1048B800DDFAFFF783FE06B070BD00BF00100240AE
:1048C8000010004810B50E4A0E48536986B043F4EC
:1048D80000135361302301930B4B029300240323ED
:1048E80001A904930394FDF7C1FA214622460A2040
:1048F800FDF76AFA0A20FDF797FA06B010BD00BF67
:1049080000100240001000480000111010B586B0D9
:1049180006AB044603F8012D0A46009308490948E6
:1049280001230193096802912146FEF785FC20B115
:104938000448FEF76AFCFFF741FE06B010BD00BF51
:1049480080010020240E002010B586B006AB00229E
:1049580003F8012D0A4600930949012301930446EF
:104968000968029107482146FEF7E2FC20B1054894
:10497800FEF74BFCFFF722FE9DF8170006B010BDAE
:1049880080010020240E002038B5094C6368984740
:1049980033280BD1074D23682C6040F64700984711
:1049A8002B6890201B6A9847002038BD012038BD2D
:1049B800A40100205C0E0020024B1B689B6A03B117
:1049C800184770475C0E002038B50E4C636898474E
:1049D800D42825460FD10C4C2B68256041F23F00A6
:1049E8009847236800201B6A9847236810205B6A51
:1049F8009847002038BD63689847D528EBD0012038
:104A080038BD00BFD0010020600E0020024B1B689B
:104A18009B6A03B118477047600E002010B5044622
:104A2800FFF71EFFE2B232202021FFF76FFF32208E
:104A380023210022BDE81040FFF768BF08B5FFF743
:104A48000FFF32200F21BDE80840FFF77DBF08B5F2
:104A580024213220FFF778FF60F07F0224213220E2
:104A6800D2B2BDE80840FFF751BF10B52121044676
:104A78003220FFF769FF00F00C0222433220212187
:104A8800BDE81040FFF742BF10B52121044632208F
:104A9800FFF75AFF00F0F702224332202121BDE838
:104AA8001040FFF733BFF0B5232185B0054632200B
:104AB800FFF74AFF242104463220FFF745FF28214B
:104AC8003220FFF741FF29218DF808003220FFF737
:104AD8003BFF2A218DF809003220FFF735FF2B21F3
:104AE8008DF80A003220FFF72FFF2C218DF80B00DC
:104AF8003220FFF729FF2D218DF80C003220FFF717
:104B080023FF14F0400F9DF909609DF908709DF985
:104B18000B209DF90A109DF90C3040B216D107EB15
:104B2800062601EB0222ADF80060ADF8022003EB87
:104B3800002004F03004202CADF8040011D0302CF3
:104B480011D0102C0CBF022301230DE006EB072621
:104B580002EB0122ADF80060ADF8022000EB032063
:104B6800E7E7042300E00C23BDF800209BB212FB0A
:104B780003F22A80BDF8022012FB03F26A80BDF816
:104B8800042012FB03F3AB8005B0F0BD10B5212162
:104B980004463220FFF7D8FE00F0FB022243322001
:104BA8002121BDE81040FFF7B1BE10B5222104460F
:104BB8003220FFF7C9FE40EA040222213220D2B295
:104BC800BDE81040FFF7A2BE10B5382104463220D8
:104BD800FFF7BAFE40EA040238213220D2B2FFF7CA
:104BE80095FE32203A210A22FFF790FE32203B211F
:104BF8000522FFF78BFE32203C210522FFF786FEB7
:104C080032203D210246BDE81040FFF77FBE08B5BF
:104C1800FFF758FE8020FFF7C8FF0420FFF7B6FF14
:104C28001020BDE80840FFF7CFBF37B502AC00231E
:104C380005468DF80730FFF799FD04F8015D20213E
:104C480020460122FFF7C6FD2D0A20462321012216
:104C58008DF80750FFF7BEFD03B030BD07B5FFF76D
:104C680085FD0DF107000F210122FFF7D5FD9DF805
:104C7800070003B05DF804FB07B524210DF1070018
:104C88000122FFF7C9FD9DF807300DF1070063F019
:104C98007F03242101228DF80730FFF79BFD03B025
:104CA8005DF804FB13B50023044630210DF106001E
:104CB80001228DF806308DF80730FFF7ADFD0DF1B4
:104CC800070022210122FFF7A7FD9DF807009DF8A4
:104CD800063020F02000204323F07F038DF80700E2
:104CE80030210DF1060001228DF80630FFF772FD24
:104CF8000DF1070022210122FFF76CFD02B010BD63
:104D080013B50122044622210DF10700FFF784FDA7
:104D180024B99DF8073063F07F0307E0012C07D121
:104D28009DF8073023F0080343F008038DF8073097
:104D38000DF1070022210122FFF74CFD02B010BD42
:104D480013B50122044622210DF10700FFF764FD87
:104D580024B99DF8073003F07F0305E0012C05D145
:104D68009DF8073023F008038DF807300DF1070090
:104D780022210122FFF72EFD02B010BD13B501223A
:104D8800044621210DF10700FFF746FD9DF80700B5
:104D980020F03F0020438DF8070021210DF1070086
:104DA8000122FFF717FD02B010BD13B5012204461A
:104DB80024210DF10700FFF72FFD9DF8070020F0D3
:104DC800100020438DF8070024210DF1070001226F
:104DD800FFF700FD02B010BDF0B587B0044606A885
:104DE800002300F8113D232101220293ADF80C3075
:104DF8000493ADF81430FFF70FFD02A8282106220E
:104E0800FFF70AFD9DF807309DF809609DF80870C6
:104E18009DF80B009DF80A509DF80D209DF80C1088
:104E280013F0400F1AD107EB062605EB0020ADF86A
:104E38001060ADF8120001EB022203F03003102BD2
:104E4800ADF8142015D0202B16D09FED157ADFED84
:104E5800157A002B08BFB0EE677A0FE006EB07263D
:104E680000EB0520ADF81060ADF8120002EB01224E
:104E7800E3E79FED0D7A01E09FED0C7A20460023D1
:104E880004AA32F9132007EE902AF8EEE77A0133E4
:104E980067EE877A032BE0EC017AF1D107B0F0BD19
:104EA8000000000000000C4100008C4100008C4212
:104EB800DFF834D0002103E00C4B5B584350043139
:104EC8000B480C4B42189A42F6D30B4A02E00023D7
:104ED80042F8043B094B9A42F9D3FCF74BFA00F02D
:104EE80017F8FBF7DFFAFEE7FF7F00203C730108A5
:104EF800000000203C0A00203C0A0020841C0020FE
:104F0800FEE70000014B1868704700BF2806002024
:104F180070B50F4E0F4D761BB61018BF002405D084
:104F2800013455F8043B9847A642F9D10A4E0B4D77
:104F3800761B01F05FFEB61018BF002406D00134BE
:104F480055F8043B9847A642F9D170BD70BD00BF23
:104F58003073010830730108387301083073010891
:104F680070B4840746D0541E002A41D0CDB20346FF
:104F780002E0621EE4B3144603F8015B9A07F8D115
:104F8800032C2ED9CDB245EA05250F2C45EA054557
:104F980019D903F110022646103E0F2E42F8105C74
:104FA80042F80C5C42F8085C42F8045C02F110021A
:104FB800F2D8A4F1100222F00F0204F00F0410320C
:104FC800032C13440DD91E462246043A032A46F8F8
:104FD800045BFAD8221F22F003020432134404F0BF
:104FE80003042CB1C9B21C4403F8011BA342FBD132
:104FF80070BC704714460346C2E700BF034B1B68EA
:1050080001469A68184601F0D7B900BF2806002063
:10501800F0B5054689B008460C4600F02FF9AB6B91
:10502800134F04940126441C04A9022203940590FA
:10503800AC680697079601910292ABB1A3899A04CE
:1050480006D4626E43F4005322F40052A3816266D0
:105058002846214601AA00F0ADFC002814BF4FF0F5
:10506800FF300A2009B0F0BD284600F05DFBE5E7F7
:105078002C730108024B01461868FFF7C9BF00BF2F
:10508800280600202DE9F0413A4C26680D460446D2
:1050980090461F4616B1B36B002B3CD0B8F1020FF7
:1050A8002FD8002F2DDB2146304600F0A9FAA18920
:1050B80000236360A3610B0627D421F0830189B222
:1050C800B8F1020FA1812AD0002D36D0B8F1010F16
:1050D80011D089B201F00800274BF36380B2256034
:1050E8002561676178B111F0030F18BF0027A76029
:1050F8000020BDE8F08141F001017B42A181A3615C
:10510800E7E74FF0FF30BDE8F0812169304600F055
:1051180079FBA189D1E7304600F006FBBEE7002005
:1051280004F1430341F0020100250122A181A56099
:10513800236023616261BDE8F081002F08BF4FF44E
:105148008067384600F0ECFD054628B1A18941F09A
:10515800800189B2A181B9E74FF4806000F0E0FDD9
:10516800054618B9A1894FF0FF30D9E74FF4806799
:10517800ECE700BF28060020355600080F4B30B476
:105188001D6802E0D21A16D1ABB110F8014B2B19E9
:1051980022465B7803F00303012B11F8013B08BF9B
:1051A80004F12002EC18647804F00304012CE9D11E
:1051B8002033D21AE9D0104630BC7047FC010020D9
:1051C80080EA0102844612F0030F4FD111F0030F59
:1051D80032D14DF8044D11F0040F51F8043B0BD0B7
:1051E800A3F101329A4312F0803F04BF4CF8043B0C
:1051F80051F8043B16D100BF51F8044BA3F101321A
:105208009A4312F0803FA4F101320BD14CF8043BD1
:10521800A24312F0803F04BF51F8043B4CF8044B02
:10522800EAD023460CF8013B13F0FF0F4FEA332373
:10523800F8D15DF8044B704711F0010F06D011F852
:10524800012B0CF8012B002A08BF704711F0020F40
:10525800BFD031F8022B12F0FF0F16BF2CF8022B2B
:105268008CF8002012F47F4FB3D1704711F8012B4E
:105278000CF8012B002AF9D1704700BF20F0030178
:1052880010F00300C0F1000051F8043B00F1040CD9
:105298004FEACC0C6FF000021CBF22FA0CF2134349
:1052A8004FF0010C4CEA0C2C4CEA0C4CA3EB0C0212
:1052B80022EA030212EACC1204BF51F8043B04307C
:1052C800F4D0C2F1000102EA0102B2FA82F2C2F19C
:1052D8001F0200EBD2007047024B1A6801235C32B0
:1052E80000F002B828060020F0B420B307460D46A7
:1052F80017F8016B01E0A64216D015F8014B002CF7
:10530800F9D1EEB13E460C4616F8015B00E073B1E8
:1053180014F8013BAB42FAD15DB100233B70166033
:1053280006463046F0BC704763B13846DEE737467C
:10533800E8E72E46F3E710680028D7D10646F0E7DD
:105348001660EEE7176006460370EAE72DE9F04FAE
:10535800464C0F46D4F800E000E027463C4614F8D7
:10536800015B0EEB0506767806F0080606F0FF08E6
:10537800002EF2D12D2D51D02B2D04BF7D78BC1CD1
:105388005BB1102B5BD04FF0FF39B9FBF3F903FB8E
:1053980009FB6FEA0B0B9A4607E0302D43D00A232E
:1053A800DFF8CC909A464FF0050B0027BC460CE07E
:1053B800303DAB4219DD7E1C05D0CC4524D821D028
:1053C8000AFB0C5C012714F8015B0EEB05067678E6
:1053D80016F0040FECD116F0030606D0012E0CBF10
:1053E80037265726AD1BAB42E5DC002F11DBC8F191
:1053F80000008CEA000040444AB107B1611E116008
:10540800BDE8F08F5D45DBDD4FF0FF37DBE7BDE83A
:10541800F08F222303604FF0FF30EDE7BC1C7D784E
:105428004FF00108ACE7237803F0DF03582B13D0C3
:1054380008239A464FF0070B6FF06049B5E7302D07
:1054480005D04FF00F0B6FF070499A46ADE72678FC
:1054580006F0DF06582EF4D14FF0100A657853464F
:105468004FF00F0B02346FF070499EE7FC010020EB
:105478009999991930B4044C0D46134601462A46A9
:10548800206830BCFFF762BF28060020024B13B12A
:10549800024800F005B870470000000045570008B2
:1054A800014600200246034601F0A0BA8B899AB251
:1054B8002DE9F0410D46110780463CD46A6843F453
:1054C8000063002AAB8165DDAE6A002E4BD09BB22B
:1054D80003F48052002192B2D8F80040C8F80010B6
:1054E800002A5BD02A6D5F0705D569682B6B521AB5
:1054F8000BB1EB6BD21A4046E9690023B047461C52
:1055080056D0AB892A692A6023F400639BB2002233
:105518006A60DA04AB813BD4296BC8F8004011B348
:1055280005F14003994202D0404600F06BF9002093
:105538002863BDE8F0812E69AEB12C682E60910712
:105548000CBF6B690023A41BAB600AE032462346FC
:105558006F6AE9694046B8470028A4EB000406448E
:1055680004DD002CF2DC0020BDE8F081AB8943F0BB
:105578004003AB814FF0FF30BDE8F081AB892A6969
:10558800696023F400639BB2AB81DB042A60C3D556
:105598002865C1E7EA6B002A96DCE4E70123404668
:1055A800E969B047431C024619D0AB89AE6A9AE74D
:1055B800D8F800100029E1D01D2907D0162905D0F8
:1055C800AB8943F04003AB81BDE8F081AB892A6920
:1055D8002A6023F400630022AB816A609CE7D8F854
:1055E8000030002BE1D01D2B07D0162B05D0AB893E
:1055F80043F04003AB81BDE8F081C8F80040B2E752
:1056080010B5044682B008B1836B53B1B1F90C00F0
:1056180008B902B010BD204602B0BDE81040FFF73F
:1056280045BF019100F080F80199EFE7014900F0CA
:105638004DBB00BF996A00082DE9F04F354B45680E
:10564800C3630024074600F53B7204230321C0F816
:10565800E412C0F8E822C0F8E04283B02C606C6025
:10566800AC606C66EC812C616C61AC61AB812146ED
:1056780005F15C000822FFF773FCBE68DFF898B0FC
:10568800DFF898A0DFF89890DFF89880C5F820B088
:1056980001230922C5F824A0C5F82890C5F82C8054
:1056A800ED612146F381B28106F15C0034607460DB
:1056B800B460746634617461B46108220193FFF7C1
:1056C8004FFCFD68F66112200222C6F820B0C6F829
:1056D80024A0C6F82890C6F82C802146A881EA8123
:1056E8002C606C60AC606C662C616C61AC6105F11F
:1056F8005C000822FFF734FC019BED61C5F820B07F
:10570800C5F824A0C5F82890C5F82C80BB6303B061
:10571800BDE8F08F355600080568000829680008BC
:105728006168000881680008836B03B17047FFF760
:1057380083BF00BF704700BF704700BF38B5084B34
:10574800084DED1AAC1018BFED1805D0013C55F8FE
:10575800043D9847002CF9D1BDE8384001F050BA13
:10576800387301083C730108F8B5234F0C46064608
:1057780000F01EFEBB685D6825F00305291B01F6D5
:10578800EF7121F47F6121F00F01A1F58054B4F588
:10579800805F07DB30460021FBF7DAF8BB682B4453
:1057A800984204D0304600F005FE0020F8BD30468F
:1057B8006142FBF7CDF801300DD0104BBA6819687B
:1057C8002D1B45F001053046091B5560196000F096
:1057D800F1FD0120F8BD30460021FBF7B9F8BA68A1
:1057E800831A0F2BDEDD064C0449246843F00103BD
:1057F800001B53600860D5E72C060020700E0020BF
:10580800380A002000294ED02DE9F0410C46804688
:1058180000F0CEFD54F8047C624927F00102A4F19F
:105828000805AB188E6858689E4220F003005AD0CD
:10583800FE0758600BD454F8087CED1B01F1080EE4
:10584800AC6874453A4467D0EF68E760BC601C18E0
:105858006468E4070CD4544F9C68BC4202447CD072
:10586800D868E06042F0010384606B60AA5003E0EE
:1058780042F001036B60AA50B2F5007F14D2D2083F
:1058880001EBC20348689F68AF609210012404FAD4
:1058980002F21043EB6048609D60FD604046BDE841
:1058A800F04100F087BD7047530A042B47D893098D
:1058B80003F13804600001EB80003A4983688342B1
:1058C80043D0596821F00301914202D99B6898425C
:1058D800F7D1DA68EA60AB6040469560DD60BDE804
:1058E800F04100F067BDFF07024407D454F8083CB4
:1058F800ED1A1A44A868EB68C36098602B4B1B68C4
:1059080042F001009A4268608D60C7D3284B404638
:105918001968FFF729FFC1E719184968C90709D4A9
:10592800D9689B68024442F00100D9608B606860C6
:10593800AA50B3E742F001036B60AA50AEE7142BFC
:1059480014D803F15B046000B5E74A68A41001208D
:10595800A04002434A601A46BCE742F001034D6189
:105968000D61EC60AC606B60AA5097E7542B04D8CB
:10597800130B03F16E0460009DE7B3F5AA7F04D80A
:10598800D30B03F17704600095E740F2545083424B
:1059980004D8930C03F17C0460008CE7FC207E247F
:1059A80089E700BF2C06002034060020340A0020B6
:1059B8006C0E00209368002B7AD02DE9F04FB1F8D7
:1059C8000CE01EF0080F83B00C468146164626D020
:1059D8000B6923B30EF002081FFA88F0356870B31C
:1059E8004FF0000ADFF8E0B2D046D84543465246A9
:1059F80028BF5B464846B8F1000F53D0E169676A93
:105A0800B847002873DDB3681B1A8244C0EB080846
:105A1800B360002BE9D1002003B0BDE8F08F484601
:105A2800214600F081FF002840F04581B4F80CE0E1
:105A380035680EF002081FFA88F00028D0D11EF051
:105A4800010B5DD1D846B8F1000F25D01EF4007FB8
:105A5800A7682FD0B845BA46C0F0A9801EF4906F49
:105A680040F0B68020685246594600F03DFCA068D8
:105A78002268C01B02EB0A03A06023604046B3689B
:105A88001B1A8344C0EB0808B360002BC3D0B4F8DA
:105A98000CE0B8F1000FD9D1D5F800B0D5F80480E2
:105AA8000835D0E7D5F800A0D5F8048008359CE77C
:105AB8000020704720682369984203D8626990459E
:105AC80080F0B980474528BF47463A46594600F016
